{
  "_format": "hh-sol-artifact-1",
  "contractName": "AuditRegistry",
  "sourceName": "contracts/AuditRegistry.sol",
  "abi": [
    {
      "inputs": [],
      "stateMutability": "nonpayable",
      "type": "constructor"
    },
    {
      "anonymous": false,
      "inputs": [
        {
          "indexed": true,
          "internalType": "address",
          "name": "token",
          "type": "address"
        },
        {
          "indexed": true,
          "internalType": "address",
          "name": "auditor",
          "type": "address"
        },
        {
          "indexed": false,
          "internalType": "uint256",
          "name": "riskScore",
          "type": "uint256"
        },
        {
          "indexed": false,
          "internalType": "bool",
          "name": "isScam",
          "type": "bool"
        },
        {
          "indexed": false,
          "internalType": "uint256",
          "name": "timestamp",
          "type": "uint256"
        }
      ],
      "name": "AuditCompleted",
      "type": "event"
    },
    {
      "anonymous": false,
      "inputs": [
        {
          "indexed": true,
          "internalType": "address",
          "name": "previousOwner",
          "type": "address"
        },
        {
          "indexed": true,
          "internalType": "address",
          "name": "newOwner",
          "type": "address"
        }
      ],
      "name": "OwnershipTransferred",
      "type": "event"
    },
    {
      "anonymous": false,
      "inputs": [
        {
          "indexed": true,
          "internalType": "address",
          "name": "token",
          "type": "address"
        },
        {
          "indexed": false,
          "internalType": "uint256",
          "name": "transactions",
          "type": "uint256"
        },
        {
          "indexed": false,
          "internalType": "uint256",
          "name": "holders",
          "type": "uint256"
        },
        {
          "indexed": false,
          "internalType": "uint256",
          "name": "liquidity",
          "type": "uint256"
        }
      ],
      "name": "TokenMetricsUpdated",
      "type": "event"
    },
    {
      "inputs": [
        {
          "internalType": "address",
          "name": "auditor",
          "type": "address"
        }
      ],
      "name": "addAuthorizedAuditor",
      "outputs": [],
      "stateMutability": "nonpayable",
      "type": "function"
    },
    {
      "inputs": [
        {
          "internalType": "address",
          "name": "",
          "type": "address"
        }
      ],
      "name": "auditCount",
      "outputs": [
        {
          "internalType": "uint256",
          "name": "",
          "type": "uint256"
        }
      ],
      "stateMutability": "view",
      "type": "function"
    },
    {
      "inputs": [
        {
          "internalType": "address",
          "name": "",
          "type": "address"
        }
      ],
      "name": "auditRecords",
      "outputs": [
        {
          "internalType": "address",
          "name": "tokenAddress",
          "type": "address"
        },
        {
          "internalType": "uint256",
          "name": "riskScore",
          "type": "uint256"
        },
        {
          "internalType": "bool",
          "name": "isScam",
          "type": "bool"
        },
        {
          "internalType": "bool",
          "name": "isHoneypot",
          "type": "bool"
        },
        {
          "internalType": "uint256",
          "name": "auditTimestamp",
          "type": "uint256"
        },
        {
          "internalType": "address",
          "name": "auditor",
          "type": "address"
        },
        {
          "internalType": "string",
          "name": "ipfsHash",
          "type": "string"
        }
      ],
      "stateMutability": "view",
      "type": "function"
    },
    {
      "inputs": [
        {
          "internalType": "address",
          "name": "",
          "type": "address"
        }
      ],
      "name": "authorizedAuditors",
      "outputs": [
        {
          "internalType": "bool",
          "name": "",
          "type": "bool"
        }
      ],
      "stateMutability": "view",
      "type": "function"
    },
    {
      "inputs": [
        {
          "internalType": "address",
          "name": "tokenAddress",
          "type": "address"
        }
      ],
      "name": "getAuditRecord",
      "outputs": [
        {
          "components": [
            {
              "internalType": "address",
              "name": "tokenAddress",
              "type": "address"
            },
            {
              "internalType": "uint256",
              "name": "riskScore",
              "type": "uint256"
            },
            {
              "internalType": "bool",
              "name": "isScam",
              "type": "bool"
            },
            {
              "internalType": "bool",
              "name": "isHoneypot",
              "type": "bool"
            },
            {
              "internalType": "uint256",
              "name": "auditTimestamp",
              "type": "uint256"
            },
            {
              "internalType": "address",
              "name": "auditor",
              "type": "address"
            },
            {
              "internalType": "string",
              "name": "ipfsHash",
              "type": "string"
            }
          ],
          "internalType": "struct AuditRegistry.AuditRecord",
          "name": "",
          "type": "tuple"
        }
      ],
      "stateMutability": "view",
      "type": "function"
    },
    {
      "inputs": [
        {
          "internalType": "address",
          "name": "auditor",
          "type": "address"
        }
      ],
      "name": "getAuditorStats",
      "outputs": [
        {
          "internalType": "uint256",
          "name": "",
          "type": "uint256"
        }
      ],
      "stateMutability": "view",
      "type": "function"
    },
    {
      "inputs": [
        {
          "internalType": "address",
          "name": "tokenAddress",
          "type": "address"
        }
      ],
      "name": "getTokenMetrics",
      "outputs": [
        {
          "components": [
            {
              "internalType": "uint256",
              "name": "totalTransactions",
              "type": "uint256"
            },
            {
              "internalType": "uint256",
              "name": "uniqueHolders",
              "type": "uint256"
            },
            {
              "internalType": "uint256",
              "name": "liquidityUSD",
              "type": "uint256"
            },
            {
              "internalType": "bool",
              "name": "liquidityLocked",
              "type": "bool"
            },
            {
              "internalType": "uint256",
              "name": "lastUpdated",
              "type": "uint256"
            }
          ],
          "internalType": "struct AuditRegistry.TokenMetrics",
          "name": "",
          "type": "tuple"
        }
      ],
      "stateMutability": "view",
      "type": "function"
    },
    {
      "inputs": [
        {
          "internalType": "address",
          "name": "tokenAddress",
          "type": "address"
        }
      ],
      "name": "isTokenAudited",
      "outputs": [
        {
          "internalType": "bool",
          "name": "",
          "type": "bool"
        }
      ],
      "stateMutability": "view",
      "type": "function"
    },
    {
      "inputs": [],
      "name": "owner",
      "outputs": [
        {
          "internalType": "address",
          "name": "",
          "type": "address"
        }
      ],
      "stateMutability": "view",
      "type": "function"
    },
    {
      "inputs": [
        {
          "internalType": "address",
          "name": "auditor",
          "type": "address"
        }
      ],
      "name": "removeAuthorizedAuditor",
      "outputs": [],
      "stateMutability": "nonpayable",
      "type": "function"
    },
    {
      "inputs": [],
      "name": "renounceOwnership",
      "outputs": [],
      "stateMutability": "nonpayable",
      "type": "function"
    },
    {
      "inputs": [
        {
          "internalType": "address",
          "name": "tokenAddress",
          "type": "address"
        },
        {
          "internalType": "uint256",
          "name": "riskScore",
          "type": "uint256"
        },
        {
          "internalType": "bool",
          "name": "isScam",
          "type": "bool"
        },
        {
          "internalType": "bool",
          "name": "isHoneypot",
          "type": "bool"
        },
        {
          "internalType": "string",
          "name": "ipfsHash",
          "type": "string"
        }
      ],
      "name": "submitAuditResult",
      "outputs": [],
      "stateMutability": "nonpayable",
      "type": "function"
    },
    {
      "inputs": [
        {
          "internalType": "address",
          "name": "",
          "type": "address"
        }
      ],
      "name": "tokenMetrics",
      "outputs": [
        {
          "internalType": "uint256",
          "name": "totalTransactions",
          "type": "uint256"
        },
        {
          "internalType": "uint256",
          "name": "uniqueHolders",
          "type": "uint256"
        },
        {
          "internalType": "uint256",
          "name": "liquidityUSD",
          "type": "uint256"
        },
        {
          "internalType": "bool",
          "name": "liquidityLocked",
          "type": "bool"
        },
        {
          "internalType": "uint256",
          "name": "lastUpdated",
          "type": "uint256"
        }
      ],
      "stateMutability": "view",
      "type": "function"
    },
    {
      "inputs": [
        {
          "internalType": "address",
          "name": "newOwner",
          "type": "address"
        }
      ],
      "name": "transferOwnership",
      "outputs": [],
      "stateMutability": "nonpayable",
      "type": "function"
    },
    {
      "inputs": [
        {
          "internalType": "address",
          "name": "tokenAddress",
          "type": "address"
        },
        {
          "internalType": "uint256",
          "name": "totalTransactions",
          "type": "uint256"
        },
        {
          "internalType": "uint256",
          "name": "uniqueHolders",
          "type": "uint256"
        },
        {
          "internalType": "uint256",
          "name": "liquidityUSD",
          "type": "uint256"
        },
        {
          "internalType": "bool",
          "name": "liquidityLocked",
          "type": "bool"
        }
      ],
      "name": "updateTokenMetrics",
      "outputs": [],
      "stateMutability": "nonpayable",
      "type": "function"
    }
  ],
  "bytecode": "0x608060405234801561001057600080fd5b5061002d61002261009160201b60201c565b61009960201b60201c565b600180819055506001600460003373ffffffffffffffffffffffffffffffffffffffff1673ffffffffffffffffffffffffffffffffffffffff16815260200190815260200160002060006101000a81548160ff02191690831515021790555061015d565b600033905090565b60008060009054906101000a900473ffffffffffffffffffffffffffffffffffffffff169050816000806101000a81548173ffffffffffffffffffffffffffffffffffffffff021916908373ffffffffffffffffffffffffffffffffffffffff1602179055508173ffffffffffffffffffffffffffffffffffffffff168173ffffffffffffffffffffffffffffffffffffffff167f8be0079c531659141344cd1fd0a4f28419497f9722a3daafe3b4186f6b6457e060405160405180910390a35050565b611e9b8061016c6000396000f3fe608060405234801561001057600080fd5b50600436106100f55760003560e01c80637487106711610097578063c022850111610066578063c02285011461029c578063c66fd448146102cc578063e664963e14610300578063f2fde38b1461031c576100f5565b806374871067146102165780637bc59bf9146102325780638da5cb5b14610262578063b8b550d414610280576100f5565b80632c16d659116100d35780632c16d659146101765780633ec109c4146101ac578063680b19d7146101dc578063715018a61461020c576100f5565b80630caf9b31146100fa5780630de78afc1461012a57806323a2dea114610146575b600080fd5b610114600480360381019061010f9190611221565b610338565b60405161012191906113bd565b60405180910390f35b610144600480360381019061013f919061149c565b610519565b005b610160600480360381019061015b9190611221565b61094c565b60405161016d9190611545565b60405180910390f35b610190600480360381019061018b9190611221565b610964565b6040516101a397969594939291906115c8565b60405180910390f35b6101c660048036038101906101c19190611221565b610a88565b6040516101d391906116a6565b60405180910390f35b6101f660048036038101906101f19190611221565b610b24565b6040516102039190611545565b60405180910390f35b610214610b6d565b005b610230600480360381019061022b91906116c1565b610b81565b005b61024c60048036038101906102479190611221565b610d56565b604051610259919061173c565b60405180910390f35b61026a610da4565b6040516102779190611757565b60405180910390f35b61029a60048036038101906102959190611221565b610dcd565b005b6102b660048036038101906102b19190611221565b610e30565b6040516102c3919061173c565b60405180910390f35b6102e660048036038101906102e19190611221565b610e50565b6040516102f7959493929190611772565b60405180910390f35b61031a60048036038101906103159190611221565b610e93565b005b61033660048036038101906103319190611221565b610ef6565b005b61034061111b565b600260008373ffffffffffffffffffffffffffffffffffffffff1673ffffffffffffffffffffffffffffffffffffffff1681526020019081526020016000206040518060e00160405290816000820160009054906101000a900473ffffffffffffffffffffffffffffffffffffffff1673ffffffffffffffffffffffffffffffffffffffff1673ffffffffffffffffffffffffffffffffffffffff168152602001600182015481526020016002820160009054906101000a900460ff161515151581526020016002820160019054906101000a900460ff16151515158152602001600382015481526020016004820160009054906101000a900473ffffffffffffffffffffffffffffffffffffffff1673ffffffffffffffffffffffffffffffffffffffff1673ffffffffffffffffffffffffffffffffffffffff168152602001600582018054610490906117f4565b80601f01602080910402602001604051908101604052809291908181526020018280546104bc906117f4565b80156105095780601f106104de57610100808354040283529160200191610509565b820191906000526020600020905b8154815290600101906020018083116104ec57829003601f168201915b5050505050815250509050919050565b600460003373ffffffffffffffffffffffffffffffffffffffff1673ffffffffffffffffffffffffffffffffffffffff16815260200190815260200160002060009054906101000a900460ff16806105a35750610574610da4565b73ffffffffffffffffffffffffffffffffffffffff163373ffffffffffffffffffffffffffffffffffffffff16145b6105e2576040517f08c379a00000000000000000000000000000000000000000000000000000000081526004016105d990611871565b60405180910390fd5b6105ea610f79565b600073ffffffffffffffffffffffffffffffffffffffff168673ffffffffffffffffffffffffffffffffffffffff1603610659576040517f08c379a0000000000000000000000000000000000000000000000000000000008152600401610650906118dd565b60405180910390fd5b606485111561069d576040517f08c379a000000000000000000000000000000000000000000000000000000000815260040161069490611949565b60405180910390fd5b6040518060e001604052808773ffffffffffffffffffffffffffffffffffffffff168152602001868152602001851515815260200184151581526020014281526020013373ffffffffffffffffffffffffffffffffffffffff16815260200183838080601f016020809104026020016040519081016040528093929190818152602001838380828437600081840152601f19601f82011690508083019250505050505050815250600260008873ffffffffffffffffffffffffffffffffffffffff1673ffffffffffffffffffffffffffffffffffffffff16815260200190815260200160002060008201518160000160006101000a81548173ffffffffffffffffffffffffffffffffffffffff021916908373ffffffffffffffffffffffffffffffffffffffff1602179055506020820151816001015560408201518160020160006101000a81548160ff02191690831515021790555060608201518160020160016101000a81548160ff0219169083151502179055506080820151816003015560a08201518160040160006101000a81548173ffffffffffffffffffffffffffffffffffffffff021916908373ffffffffffffffffffffffffffffffffffffffff16021790555060c082015181600501908161087a9190611b44565b50905050600560003373ffffffffffffffffffffffffffffffffffffffff1673ffffffffffffffffffffffffffffffffffffffff16815260200190815260200160002060008154809291906108ce90611c45565b91905055503373ffffffffffffffffffffffffffffffffffffffff168673ffffffffffffffffffffffffffffffffffffffff167f564f6a4e467742c68af4896cab7c48440463354e629cc21a443a3002696f848b87874260405161093493929190611c8d565b60405180910390a3610944610fc8565b505050505050565b60056020528060005260406000206000915090505481565b60026020528060005260406000206000915090508060000160009054906101000a900473ffffffffffffffffffffffffffffffffffffffff16908060010154908060020160009054906101000a900460ff16908060020160019054906101000a900460ff16908060030154908060040160009054906101000a900473ffffffffffffffffffffffffffffffffffffffff1690806005018054610a05906117f4565b80601f0160208091040260200160405190810160405280929190818152602001828054610a31906117f4565b8015610a7e5780601f10610a5357610100808354040283529160200191610a7e565b820191906000526020600020905b815481529060010190602001808311610a6157829003601f168201915b5050505050905087565b610a90611188565b600360008373ffffffffffffffffffffffffffffffffffffffff1673ffffffffffffffffffffffffffffffffffffffff1681526020019081526020016000206040518060a00160405290816000820154815260200160018201548152602001600282015481526020016003820160009054906101000a900460ff161515151581526020016004820154815250509050919050565b6000600560008373ffffffffffffffffffffffffffffffffffffffff1673ffffffffffffffffffffffffffffffffffffffff168152602001908152602001600020549050919050565b610b75610fd1565b610b7f600061104f565b565b600460003373ffffffffffffffffffffffffffffffffffffffff1673ffffffffffffffffffffffffffffffffffffffff16815260200190815260200160002060009054906101000a900460ff1680610c0b5750610bdc610da4565b73ffffffffffffffffffffffffffffffffffffffff163373ffffffffffffffffffffffffffffffffffffffff16145b610c4a576040517f08c379a0000000000000000000000000000000000000000000000000000000008152600401610c4190611871565b60405180910390fd5b6040518060a00160405280858152602001848152602001838152602001821515815260200142815250600360008773ffffffffffffffffffffffffffffffffffffffff1673ffffffffffffffffffffffffffffffffffffffff16815260200190815260200160002060008201518160000155602082015181600101556040820151816002015560608201518160030160006101000a81548160ff021916908315150217905550608082015181600401559050508473ffffffffffffffffffffffffffffffffffffffff167f01940c9ae3ab3b1b9180a2f72115b198416ff6f7aa8da058d3f89dc5f13d22b1858585604051610d4793929190611cc4565b60405180910390a25050505050565b600080600260008473ffffffffffffffffffffffffffffffffffffffff1673ffffffffffffffffffffffffffffffffffffffff16815260200190815260200160002060030154119050919050565b60008060009054906101000a900473ffffffffffffffffffffffffffffffffffffffff16905090565b610dd5610fd1565b6001600460008373ffffffffffffffffffffffffffffffffffffffff1673ffffffffffffffffffffffffffffffffffffffff16815260200190815260200160002060006101000a81548160ff02191690831515021790555050565b60046020528060005260406000206000915054906101000a900460ff1681565b60036020528060005260406000206000915090508060000154908060010154908060020154908060030160009054906101000a900460ff16908060040154905085565b610e9b610fd1565b6000600460008373ffffffffffffffffffffffffffffffffffffffff1673ffffffffffffffffffffffffffffffffffffffff16815260200190815260200160002060006101000a81548160ff02191690831515021790555050565b610efe610fd1565b600073ffffffffffffffffffffffffffffffffffffffff168173ffffffffffffffffffffffffffffffffffffffff1603610f6d576040517f08c379a0000000000000000000000000000000000000000000000000000000008152600401610f6490611d6d565b60405180910390fd5b610f768161104f565b50565b600260015403610fbe576040517f08c379a0000000000000000000000000000000000000000000000000000000008152600401610fb590611dd9565b60405180910390fd5b6002600181905550565b60018081905550565b610fd9611113565b73ffffffffffffffffffffffffffffffffffffffff16610ff7610da4565b73ffffffffffffffffffffffffffffffffffffffff161461104d576040517f08c379a000000000000000000000000000000000000000000000000000000000815260040161104490611e45565b60405180910390fd5b565b60008060009054906101000a900473ffffffffffffffffffffffffffffffffffffffff169050816000806101000a81548173ffffffffffffffffffffffffffffffffffffffff021916908373ffffffffffffffffffffffffffffffffffffffff1602179055508173ffffffffffffffffffffffffffffffffffffffff168173ffffffffffffffffffffffffffffffffffffffff167f8be0079c531659141344cd1fd0a4f28419497f9722a3daafe3b4186f6b6457e060405160405180910390a35050565b600033905090565b6040518060e00160405280600073ffffffffffffffffffffffffffffffffffffffff1681526020016000815260200160001515815260200160001515815260200160008152602001600073ffffffffffffffffffffffffffffffffffffffff168152602001606081525090565b6040518060a00160405280600081526020016000815260200160008152602001600015158152602001600081525090565b600080fd5b600080fd5b600073ffffffffffffffffffffffffffffffffffffffff82169050919050565b60006111ee826111c3565b9050919050565b6111fe816111e3565b811461120957600080fd5b50565b60008135905061121b816111f5565b92915050565b600060208284031215611237576112366111b9565b5b60006112458482850161120c565b91505092915050565b611257816111e3565b82525050565b6000819050919050565b6112708161125d565b82525050565b60008115159050919050565b61128b81611276565b82525050565b600081519050919050565b600082825260208201905092915050565b60005b838110156112cb5780820151818401526020810190506112b0565b60008484015250505050565b6000601f19601f8301169050919050565b60006112f382611291565b6112fd818561129c565b935061130d8185602086016112ad565b611316816112d7565b840191505092915050565b600060e083016000830151611339600086018261124e565b50602083015161134c6020860182611267565b50604083015161135f6040860182611282565b5060608301516113726060860182611282565b5060808301516113856080860182611267565b5060a083015161139860a086018261124e565b5060c083015184820360c08601526113b082826112e8565b9150508091505092915050565b600060208201905081810360008301526113d78184611321565b905092915050565b6113e88161125d565b81146113f357600080fd5b50565b600081359050611405816113df565b92915050565b61141481611276565b811461141f57600080fd5b50565b6000813590506114318161140b565b92915050565b600080fd5b600080fd5b600080fd5b60008083601f84011261145c5761145b611437565b5b8235905067ffffffffffffffff8111156114795761147861143c565b5b60208301915083600182028301111561149557611494611441565b5b9250929050565b60008060008060008060a087890312156114b9576114b86111b9565b5b60006114c789828a0161120c565b96505060206114d889828a016113f6565b95505060406114e989828a01611422565b94505060606114fa89828a01611422565b935050608087013567ffffffffffffffff81111561151b5761151a6111be565b5b61152789828a01611446565b92509250509295509295509295565b61153f8161125d565b82525050565b600060208201905061155a6000830184611536565b92915050565b611569816111e3565b82525050565b61157881611276565b82525050565b600082825260208201905092915050565b600061159a82611291565b6115a4818561157e565b93506115b48185602086016112ad565b6115bd816112d7565b840191505092915050565b600060e0820190506115dd600083018a611560565b6115ea6020830189611536565b6115f7604083018861156f565b611604606083018761156f565b6116116080830186611536565b61161e60a0830185611560565b81810360c0830152611630818461158f565b905098975050505050505050565b60a0820160008201516116546000850182611267565b5060208201516116676020850182611267565b50604082015161167a6040850182611267565b50606082015161168d6060850182611282565b5060808201516116a06080850182611267565b50505050565b600060a0820190506116bb600083018461163e565b92915050565b600080600080600060a086880312156116dd576116dc6111b9565b5b60006116eb8882890161120c565b95505060206116fc888289016113f6565b945050604061170d888289016113f6565b935050606061171e888289016113f6565b925050608061172f88828901611422565b9150509295509295909350565b6000602082019050611751600083018461156f565b92915050565b600060208201905061176c6000830184611560565b92915050565b600060a0820190506117876000830188611536565b6117946020830187611536565b6117a16040830186611536565b6117ae606083018561156f565b6117bb6080830184611536565b9695505050505050565b7f4e487b7100000000000000000000000000000000000000000000000000000000600052602260045260246000fd5b6000600282049050600182168061180c57607f821691505b60208210810361181f5761181e6117c5565b5b50919050565b7f4e6f7420617574686f72697a65642061756469746f7200000000000000000000600082015250565b600061185b60168361157e565b915061186682611825565b602082019050919050565b6000602082019050818103600083015261188a8161184e565b9050919050565b7f496e76616c696420746f6b656e20616464726573730000000000000000000000600082015250565b60006118c760158361157e565b91506118d282611891565b602082019050919050565b600060208201905081810360008301526118f6816118ba565b9050919050565b7f5269736b2073636f7265206d757374206265203c3d2031303000000000000000600082015250565b600061193360198361157e565b915061193e826118fd565b602082019050919050565b6000602082019050818103600083015261196281611926565b9050919050565b7f4e487b7100000000000000000000000000000000000000000000000000000000600052604160045260246000fd5b60008190508160005260206000209050919050565b60006020601f8301049050919050565b600082821b905092915050565b6000600883026119fa7fffffffffffffffffffffffffffffffffffffffffffffffffffffffffffffffff826119bd565b611a0486836119bd565b95508019841693508086168417925050509392505050565b6000819050919050565b6000611a41611a3c611a378461125d565b611a1c565b61125d565b9050919050565b6000819050919050565b611a5b83611a26565b611a6f611a6782611a48565b8484546119ca565b825550505050565b600090565b611a84611a77565b611a8f818484611a52565b505050565b5b81811015611ab357611aa8600082611a7c565b600181019050611a95565b5050565b601f821115611af857611ac981611998565b611ad2846119ad565b81016020851015611ae1578190505b611af5611aed856119ad565b830182611a94565b50505b505050565b600082821c905092915050565b6000611b1b60001984600802611afd565b1980831691505092915050565b6000611b348383611b0a565b9150826002028217905092915050565b611b4d82611291565b67ffffffffffffffff811115611b6657611b65611969565b5b611b7082546117f4565b611b7b828285611ab7565b600060209050601f831160018114611bae5760008415611b9c578287015190505b611ba68582611b28565b865550611c0e565b601f198416611bbc86611998565b60005b82811015611be457848901518255600182019150602085019450602081019050611bbf565b86831015611c015784890151611bfd601f891682611b0a565b8355505b6001600288020188555050505b505050505050565b7f4e487b7100000000000000000000000000000000000000000000000000000000600052601160045260246000fd5b6000611c508261125d565b91507fffffffffffffffffffffffffffffffffffffffffffffffffffffffffffffffff8203611c8257611c81611c16565b5b600182019050919050565b6000606082019050611ca26000830186611536565b611caf602083018561156f565b611cbc6040830184611536565b949350505050565b6000606082019050611cd96000830186611536565b611ce66020830185611536565b611cf36040830184611536565b949350505050565b7f4f776e61626c653a206e6577206f776e657220697320746865207a65726f206160008201527f6464726573730000000000000000000000000000000000000000000000000000602082015250565b6000611d5760268361157e565b9150611d6282611cfb565b604082019050919050565b60006020820190508181036000830152611d8681611d4a565b9050919050565b7f5265656e7472616e637947756172643a207265656e7472616e742063616c6c00600082015250565b6000611dc3601f8361157e565b9150611dce82611d8d565b602082019050919050565b60006020820190508181036000830152611df281611db6565b9050919050565b7f4f776e61626c653a2063616c6c6572206973206e6f7420746865206f776e6572600082015250565b6000611e2f60208361157e565b9150611e3a82611df9565b602082019050919050565b60006020820190508181036000830152611e5e81611e22565b905091905056fea26469706673582212202fea93a2d439437124157f70e4af36a68e518c3535da7d0ff8219c7f38e5984a64736f6c63430008130033",
  "linkReferences": {},
  "deployedLinkReferences": {}
}